{
	"data": {
		"bytecode": {
			"linkReferences": {},
			"object": "6080604052348015600f57600080fd5b50607a8061001e6000396000f3fe6080604052348015600f57600080fd5b506004361060285760003560e01c80638a4068dd14602d575b600080fd5b60336035565b005b60005b80156041576038565b5056fea26469706673582212208cc34d0533082f3d19e4e9c717eb3edccea9bef79fe32408d93c0633afbfcc5364736f6c63430008070033",
			"opcodes": "PUSH1 0x80 PUSH1 0x40 MSTORE CALLVALUE DUP1 ISZERO PUSH1 0xF JUMPI PUSH1 0x0 DUP1 REVERT JUMPDEST POP PUSH1 0x7A DUP1 PUSH2 0x1E PUSH1 0x0 CODECOPY PUSH1 0x0 RETURN INVALID PUSH1 0x80 PUSH1 0x40 MSTORE CALLVALUE DUP1 ISZERO PUSH1 0xF JUMPI PUSH1 0x0 DUP1 REVERT JUMPDEST POP PUSH1 0x4 CALLDATASIZE LT PUSH1 0x28 JUMPI PUSH1 0x0 CALLDATALOAD PUSH1 0xE0 SHR DUP1 PUSH4 0x8A4068DD EQ PUSH1 0x2D JUMPI JUMPDEST PUSH1 0x0 DUP1 REVERT JUMPDEST PUSH1 0x33 PUSH1 0x35 JUMP JUMPDEST STOP JUMPDEST PUSH1 0x0 JUMPDEST DUP1 ISZERO PUSH1 0x41 JUMPI PUSH1 0x38 JUMP JUMPDEST POP JUMP INVALID LOG2 PUSH5 0x6970667358 0x22 SLT KECCAK256 DUP13 0xC3 0x4D SDIV CALLER ADDMOD 0x2F RETURNDATASIZE NOT 0xE4 0xE9 0xC7 OR 0xEB RETURNDATACOPY 0xDC 0xCE 0xA9 0xBE 0xF7 SWAP16 0xE3 0x24 ADDMOD 0xD9 EXTCODECOPY MOD CALLER 0xAF 0xBF 0xCC MSTORE8 PUSH5 0x736F6C6343 STOP ADDMOD SMOD STOP CALLER "
		},
		"gasEstimates": {
			"creation": {
				"codeDepositCost": "24400",
				"executionCost": "75",
				"totalCost": "24475"
			},
			"external": {
				"transfer()": "148"
			}
		},
		"methodIdentifiers": {
			"transfer()": "8a4068dd"
		}
	},
	"abi": [
		{
			"inputs": [],
			"name": "transfer",
			"outputs": [],
			"stateMutability": "nonpayable",
			"type": "function"
		}
	]
}