{
	"data": {
		"bytecode": {
			"linkReferences": {},
			"object": "608060405234801561001057600080fd5b50610465806100206000396000f3fe608060405234801561001057600080fd5b50600436106100415760003560e01c806318955b1e14610046578063bfa814b514610050578063f3a1ee9b1461005a575b600080fd5b61004e610064565b005b61005861009f565b005b610062610141565b005b6040517f08c379a000000000000000000000000000000000000000000000000000000000815260040161009690610222565b60405180910390fd5b600a60005414156100e5576040517f08c379a00000000000000000000000000000000000000000000000000000000081526004016100dc90610242565b60405180910390fd5b600a600054141561012b576040517f08c379a000000000000000000000000000000000000000000000000000000000815260040161012290610242565b60405180910390fd5b600a600054141561013f5761013e610273565b5b565b600060405161014f906101cf565b604051809103906000f08015801561016b573d6000803e3d6000fd5b5090508073ffffffffffffffffffffffffffffffffffffffff1663741351546040518163ffffffff1660e01b815260040160006040518083038186803b1580156101b457600080fd5b505afa1580156101c8573d6000803e3d6000fd5b5050505050565b61013b806102f583390190565b60006101e9600f83610262565b91506101f4826102a2565b602082019050919050565b600061020c600d83610262565b9150610217826102cb565b602082019050919050565b6000602082019050818103600083015261023b816101dc565b9050919050565b6000602082019050818103600083015261025b816101ff565b9050919050565b600082825260208201905092915050565b7f4e487b7100000000000000000000000000000000000000000000000000000000600052600160045260246000fd5b7f4265636175736520726561736f6e730000000000000000000000000000000000600082015250565b7f54686973206973206572726f720000000000000000000000000000000000000060008201525056fe608060405234801561001057600080fd5b5061011b806100206000396000f3fe6080604052348015600f57600080fd5b506004361060285760003560e01c80637413515414602d575b600080fd5b60336035565b005b6040517f08c379a0000000000000000000000000000000000000000000000000000000008152600401606590608d565b60405180910390fd5b6000607960098360ab565b915060828260bc565b602082019050919050565b6000602082019050818103600083015260a481606e565b9050919050565b600082825260208201905092915050565b7f4e6577206572726f72000000000000000000000000000000000000000000000060008201525056fea2646970667358221220a7c6dc6164a814279eb40c34a8fdf55a07f6f88ad9b7dccd025b39fa74b1677e64736f6c63430008070033a264697066735822122057deded118844ca8370e773bc89693d30ab6e0d9cd59977442009a80b8a9b9eb64736f6c63430008070033",
			"opcodes": "PUSH1 0x80 PUSH1 0x40 MSTORE CALLVALUE DUP1 ISZERO PUSH2 0x10 JUMPI PUSH1 0x0 DUP1 REVERT JUMPDEST POP PUSH2 0x465 DUP1 PUSH2 0x20 PUSH1 0x0 CODECOPY PUSH1 0x0 RETURN INVALID PUSH1 0x80 PUSH1 0x40 MSTORE CALLVALUE DUP1 ISZERO PUSH2 0x10 JUMPI PUSH1 0x0 DUP1 REVERT JUMPDEST POP PUSH1 0x4 CALLDATASIZE LT PUSH2 0x41 JUMPI PUSH1 0x0 CALLDATALOAD PUSH1 0xE0 SHR DUP1 PUSH4 0x18955B1E EQ PUSH2 0x46 JUMPI DUP1 PUSH4 0xBFA814B5 EQ PUSH2 0x50 JUMPI DUP1 PUSH4 0xF3A1EE9B EQ PUSH2 0x5A JUMPI JUMPDEST PUSH1 0x0 DUP1 REVERT JUMPDEST PUSH2 0x4E PUSH2 0x64 JUMP JUMPDEST STOP JUMPDEST PUSH2 0x58 PUSH2 0x9F JUMP JUMPDEST STOP JUMPDEST PUSH2 0x62 PUSH2 0x141 JUMP JUMPDEST STOP JUMPDEST PUSH1 0x40 MLOAD PUSH32 0x8C379A000000000000000000000000000000000000000000000000000000000 DUP2 MSTORE PUSH1 0x4 ADD PUSH2 0x96 SWAP1 PUSH2 0x222 JUMP JUMPDEST PUSH1 0x40 MLOAD DUP1 SWAP2 SUB SWAP1 REVERT JUMPDEST PUSH1 0xA PUSH1 0x0 SLOAD EQ ISZERO PUSH2 0xE5 JUMPI PUSH1 0x40 MLOAD PUSH32 0x8C379A000000000000000000000000000000000000000000000000000000000 DUP2 MSTORE PUSH1 0x4 ADD PUSH2 0xDC SWAP1 PUSH2 0x242 JUMP JUMPDEST PUSH1 0x40 MLOAD DUP1 SWAP2 SUB SWAP1 REVERT JUMPDEST PUSH1 0xA PUSH1 0x0 SLOAD EQ ISZERO PUSH2 0x12B JUMPI PUSH1 0x40 MLOAD PUSH32 0x8C379A000000000000000000000000000000000000000000000000000000000 DUP2 MSTORE PUSH1 0x4 ADD PUSH2 0x122 SWAP1 PUSH2 0x242 JUMP JUMPDEST PUSH1 0x40 MLOAD DUP1 SWAP2 SUB SWAP1 REVERT JUMPDEST PUSH1 0xA PUSH1 0x0 SLOAD EQ ISZERO PUSH2 0x13F JUMPI PUSH2 0x13E PUSH2 0x273 JUMP JUMPDEST JUMPDEST JUMP JUMPDEST PUSH1 0x0 PUSH1 0x40 MLOAD PUSH2 0x14F SWAP1 PUSH2 0x1CF JUMP JUMPDEST PUSH1 0x40 MLOAD DUP1 SWAP2 SUB SWAP1 PUSH1 0x0 CREATE DUP1 ISZERO DUP1 ISZERO PUSH2 0x16B JUMPI RETURNDATASIZE PUSH1 0x0 DUP1 RETURNDATACOPY RETURNDATASIZE PUSH1 0x0 REVERT JUMPDEST POP SWAP1 POP DUP1 PUSH20 0xFFFFFFFFFFFFFFFFFFFFFFFFFFFFFFFFFFFFFFFF AND PUSH4 0x74135154 PUSH1 0x40 MLOAD DUP2 PUSH4 0xFFFFFFFF AND PUSH1 0xE0 SHL DUP2 MSTORE PUSH1 0x4 ADD PUSH1 0x0 PUSH1 0x40 MLOAD DUP1 DUP4 SUB DUP2 DUP7 DUP1 EXTCODESIZE ISZERO DUP1 ISZERO PUSH2 0x1B4 JUMPI PUSH1 0x0 DUP1 REVERT JUMPDEST POP GAS STATICCALL ISZERO DUP1 ISZERO PUSH2 0x1C8 JUMPI RETURNDATASIZE PUSH1 0x0 DUP1 RETURNDATACOPY RETURNDATASIZE PUSH1 0x0 REVERT JUMPDEST POP POP POP POP POP JUMP JUMPDEST PUSH2 0x13B DUP1 PUSH2 0x2F5 DUP4 CODECOPY ADD SWAP1 JUMP JUMPDEST PUSH1 0x0 PUSH2 0x1E9 PUSH1 0xF DUP4 PUSH2 0x262 JUMP JUMPDEST SWAP2 POP PUSH2 0x1F4 DUP3 PUSH2 0x2A2 JUMP JUMPDEST PUSH1 0x20 DUP3 ADD SWAP1 POP SWAP2 SWAP1 POP JUMP JUMPDEST PUSH1 0x0 PUSH2 0x20C PUSH1 0xD DUP4 PUSH2 0x262 JUMP JUMPDEST SWAP2 POP PUSH2 0x217 DUP3 PUSH2 0x2CB JUMP JUMPDEST PUSH1 0x20 DUP3 ADD SWAP1 POP SWAP2 SWAP1 POP JUMP JUMPDEST PUSH1 0x0 PUSH1 0x20 DUP3 ADD SWAP1 POP DUP2 DUP2 SUB PUSH1 0x0 DUP4 ADD MSTORE PUSH2 0x23B DUP2 PUSH2 0x1DC JUMP JUMPDEST SWAP1 POP SWAP2 SWAP1 POP JUMP JUMPDEST PUSH1 0x0 PUSH1 0x20 DUP3 ADD SWAP1 POP DUP2 DUP2 SUB PUSH1 0x0 DUP4 ADD MSTORE PUSH2 0x25B DUP2 PUSH2 0x1FF JUMP JUMPDEST SWAP1 POP SWAP2 SWAP1 POP JUMP JUMPDEST PUSH1 0x0 DUP3 DUP3 MSTORE PUSH1 0x20 DUP3 ADD SWAP1 POP SWAP3 SWAP2 POP POP JUMP JUMPDEST PUSH32 0x4E487B7100000000000000000000000000000000000000000000000000000000 PUSH1 0x0 MSTORE PUSH1 0x1 PUSH1 0x4 MSTORE PUSH1 0x24 PUSH1 0x0 REVERT JUMPDEST PUSH32 0x4265636175736520726561736F6E730000000000000000000000000000000000 PUSH1 0x0 DUP3 ADD MSTORE POP JUMP JUMPDEST PUSH32 0x54686973206973206572726F7200000000000000000000000000000000000000 PUSH1 0x0 DUP3 ADD MSTORE POP JUMP INVALID PUSH1 0x80 PUSH1 0x40 MSTORE CALLVALUE DUP1 ISZERO PUSH2 0x10 JUMPI PUSH1 0x0 DUP1 REVERT JUMPDEST POP PUSH2 0x11B DUP1 PUSH2 0x20 PUSH1 0x0 CODECOPY PUSH1 0x0 RETURN INVALID PUSH1 0x80 PUSH1 0x40 MSTORE CALLVALUE DUP1 ISZERO PUSH1 0xF JUMPI PUSH1 0x0 DUP1 REVERT JUMPDEST POP PUSH1 0x4 CALLDATASIZE LT PUSH1 0x28 JUMPI PUSH1 0x0 CALLDATALOAD PUSH1 0xE0 SHR DUP1 PUSH4 0x74135154 EQ PUSH1 0x2D JUMPI JUMPDEST PUSH1 0x0 DUP1 REVERT JUMPDEST PUSH1 0x33 PUSH1 0x35 JUMP JUMPDEST STOP JUMPDEST PUSH1 0x40 MLOAD PUSH32 0x8C379A000000000000000000000000000000000000000000000000000000000 DUP2 MSTORE PUSH1 0x4 ADD PUSH1 0x65 SWAP1 PUSH1 0x8D JUMP JUMPDEST PUSH1 0x40 MLOAD DUP1 SWAP2 SUB SWAP1 REVERT JUMPDEST PUSH1 0x0 PUSH1 0x79 PUSH1 0x9 DUP4 PUSH1 0xAB JUMP JUMPDEST SWAP2 POP PUSH1 0x82 DUP3 PUSH1 0xBC JUMP JUMPDEST PUSH1 0x20 DUP3 ADD SWAP1 POP SWAP2 SWAP1 POP JUMP JUMPDEST PUSH1 0x0 PUSH1 0x20 DUP3 ADD SWAP1 POP DUP2 DUP2 SUB PUSH1 0x0 DUP4 ADD MSTORE PUSH1 0xA4 DUP2 PUSH1 0x6E JUMP JUMPDEST SWAP1 POP SWAP2 SWAP1 POP JUMP JUMPDEST PUSH1 0x0 DUP3 DUP3 MSTORE PUSH1 0x20 DUP3 ADD SWAP1 POP SWAP3 SWAP2 POP POP JUMP JUMPDEST PUSH32 0x4E6577206572726F720000000000000000000000000000000000000000000000 PUSH1 0x0 DUP3 ADD MSTORE POP JUMP INVALID LOG2 PUSH5 0x6970667358 0x22 SLT KECCAK256 0xA7 0xC6 0xDC PUSH2 0x64A8 EQ 0x27 SWAP15 0xB4 0xC CALLVALUE 0xA8 REVERT CREATE2 GAS SMOD 0xF6 0xF8 DUP11 0xD9 0xB7 0xDC 0xCD MUL JUMPDEST CODECOPY STATICCALL PUSH21 0xB1677E64736F6C63430008070033A2646970667358 0x22 SLT KECCAK256 JUMPI 0xDE 0xDE 0xD1 XOR DUP5 0x4C 0xA8 CALLDATACOPY 0xE PUSH24 0x3BC89693D30AB6E0D9CD59977442009A80B8A9B9EB64736F PUSH13 0x63430008070033000000000000 "
		},
		"gasEstimates": {
			"creation": {
				"codeDepositCost": "225000",
				"executionCost": "269",
				"totalCost": "225269"
			},
			"external": {
				"func()": "6551",
				"willThrow()": "412",
				"willThrowNewErr()": "infinite"
			}
		},
		"methodIdentifiers": {
			"func()": "bfa814b5",
			"willThrow()": "18955b1e",
			"willThrowNewErr()": "f3a1ee9b"
		}
	},
	"abi": [
		{
			"inputs": [],
			"name": "func",
			"outputs": [],
			"stateMutability": "view",
			"type": "function"
		},
		{
			"inputs": [],
			"name": "willThrow",
			"outputs": [],
			"stateMutability": "pure",
			"type": "function"
		},
		{
			"inputs": [],
			"name": "willThrowNewErr",
			"outputs": [],
			"stateMutability": "nonpayable",
			"type": "function"
		}
	]
}