{
	"data": {
		"bytecode": {
			"linkReferences": {},
			"object": "608060405234801561001057600080fd5b506101fe806100206000396000f3fe608060405234801561001057600080fd5b506004361061002b5760003560e01c806368f8c2a414610030575b600080fd5b61004a600480360381019061004591906100e1565b61004c565b005b8173ffffffffffffffffffffffffffffffffffffffff163373ffffffffffffffffffffffffffffffffffffffff167fa6b5ddd331f9dc412a8c258207b1c66f53c1740c72628d9913aafcb6b28d8f7342846040516100ab929190610130565b60405180910390a35050565b6000813590506100c68161019a565b92915050565b6000813590506100db816101b1565b92915050565b600080604083850312156100f8576100f7610195565b5b6000610106858286016100b7565b9250506020610117858286016100cc565b9150509250929050565b61012a8161018b565b82525050565b60006040820190506101456000830185610121565b6101526020830184610121565b9392505050565b60006101648261016b565b9050919050565b600073ffffffffffffffffffffffffffffffffffffffff82169050919050565b6000819050919050565b600080fd5b6101a381610159565b81146101ae57600080fd5b50565b6101ba8161018b565b81146101c557600080fd5b5056fea2646970667358221220ebf983baa2ac9538b88129887dbc59f91c795fa4b5c4e57f2a83e298c7a28ba264736f6c63430008070033",
			"opcodes": "PUSH1 0x80 PUSH1 0x40 MSTORE CALLVALUE DUP1 ISZERO PUSH2 0x10 JUMPI PUSH1 0x0 DUP1 REVERT JUMPDEST POP PUSH2 0x1FE DUP1 PUSH2 0x20 PUSH1 0x0 CODECOPY PUSH1 0x0 RETURN INVALID PUSH1 0x80 PUSH1 0x40 MSTORE CALLVALUE DUP1 ISZERO PUSH2 0x10 JUMPI PUSH1 0x0 DUP1 REVERT JUMPDEST POP PUSH1 0x4 CALLDATASIZE LT PUSH2 0x2B JUMPI PUSH1 0x0 CALLDATALOAD PUSH1 0xE0 SHR DUP1 PUSH4 0x68F8C2A4 EQ PUSH2 0x30 JUMPI JUMPDEST PUSH1 0x0 DUP1 REVERT JUMPDEST PUSH2 0x4A PUSH1 0x4 DUP1 CALLDATASIZE SUB DUP2 ADD SWAP1 PUSH2 0x45 SWAP2 SWAP1 PUSH2 0xE1 JUMP JUMPDEST PUSH2 0x4C JUMP JUMPDEST STOP JUMPDEST DUP2 PUSH20 0xFFFFFFFFFFFFFFFFFFFFFFFFFFFFFFFFFFFFFFFF AND CALLER PUSH20 0xFFFFFFFFFFFFFFFFFFFFFFFFFFFFFFFFFFFFFFFF AND PUSH32 0xA6B5DDD331F9DC412A8C258207B1C66F53C1740C72628D9913AAFCB6B28D8F73 TIMESTAMP DUP5 PUSH1 0x40 MLOAD PUSH2 0xAB SWAP3 SWAP2 SWAP1 PUSH2 0x130 JUMP JUMPDEST PUSH1 0x40 MLOAD DUP1 SWAP2 SUB SWAP1 LOG3 POP POP JUMP JUMPDEST PUSH1 0x0 DUP2 CALLDATALOAD SWAP1 POP PUSH2 0xC6 DUP2 PUSH2 0x19A JUMP JUMPDEST SWAP3 SWAP2 POP POP JUMP JUMPDEST PUSH1 0x0 DUP2 CALLDATALOAD SWAP1 POP PUSH2 0xDB DUP2 PUSH2 0x1B1 JUMP JUMPDEST SWAP3 SWAP2 POP POP JUMP JUMPDEST PUSH1 0x0 DUP1 PUSH1 0x40 DUP4 DUP6 SUB SLT ISZERO PUSH2 0xF8 JUMPI PUSH2 0xF7 PUSH2 0x195 JUMP JUMPDEST JUMPDEST PUSH1 0x0 PUSH2 0x106 DUP6 DUP3 DUP7 ADD PUSH2 0xB7 JUMP JUMPDEST SWAP3 POP POP PUSH1 0x20 PUSH2 0x117 DUP6 DUP3 DUP7 ADD PUSH2 0xCC JUMP JUMPDEST SWAP2 POP POP SWAP3 POP SWAP3 SWAP1 POP JUMP JUMPDEST PUSH2 0x12A DUP2 PUSH2 0x18B JUMP JUMPDEST DUP3 MSTORE POP POP JUMP JUMPDEST PUSH1 0x0 PUSH1 0x40 DUP3 ADD SWAP1 POP PUSH2 0x145 PUSH1 0x0 DUP4 ADD DUP6 PUSH2 0x121 JUMP JUMPDEST PUSH2 0x152 PUSH1 0x20 DUP4 ADD DUP5 PUSH2 0x121 JUMP JUMPDEST SWAP4 SWAP3 POP POP POP JUMP JUMPDEST PUSH1 0x0 PUSH2 0x164 DUP3 PUSH2 0x16B JUMP JUMPDEST SWAP1 POP SWAP2 SWAP1 POP JUMP JUMPDEST PUSH1 0x0 PUSH20 0xFFFFFFFFFFFFFFFFFFFFFFFFFFFFFFFFFFFFFFFF DUP3 AND SWAP1 POP SWAP2 SWAP1 POP JUMP JUMPDEST PUSH1 0x0 DUP2 SWAP1 POP SWAP2 SWAP1 POP JUMP JUMPDEST PUSH1 0x0 DUP1 REVERT JUMPDEST PUSH2 0x1A3 DUP2 PUSH2 0x159 JUMP JUMPDEST DUP2 EQ PUSH2 0x1AE JUMPI PUSH1 0x0 DUP1 REVERT JUMPDEST POP JUMP JUMPDEST PUSH2 0x1BA DUP2 PUSH2 0x18B JUMP JUMPDEST DUP2 EQ PUSH2 0x1C5 JUMPI PUSH1 0x0 DUP1 REVERT JUMPDEST POP JUMP INVALID LOG2 PUSH5 0x6970667358 0x22 SLT KECCAK256 0xEB 0xF9 DUP4 0xBA LOG2 0xAC SWAP6 CODESIZE 0xB8 DUP2 0x29 DUP9 PUSH30 0xBC59F91C795FA4B5C4E57F2A83E298C7A28BA264736F6C63430008070033 "
		},
		"gasEstimates": {
			"creation": {
				"codeDepositCost": "102000",
				"executionCost": "147",
				"totalCost": "102147"
			},
			"external": {
				"trade(address,uint256)": "infinite"
			}
		},
		"methodIdentifiers": {
			"trade(address,uint256)": "68f8c2a4"
		}
	},
	"abi": [
		{
			"anonymous": false,
			"inputs": [
				{
					"indexed": false,
					"internalType": "uint256",
					"name": "date",
					"type": "uint256"
				},
				{
					"indexed": true,
					"internalType": "address",
					"name": "from",
					"type": "address"
				},
				{
					"indexed": true,
					"internalType": "address",
					"name": "to",
					"type": "address"
				},
				{
					"indexed": false,
					"internalType": "uint256",
					"name": "amount",
					"type": "uint256"
				}
			],
			"name": "NewTrade",
			"type": "event"
		},
		{
			"inputs": [
				{
					"internalType": "address",
					"name": "to",
					"type": "address"
				},
				{
					"internalType": "uint256",
					"name": "amount",
					"type": "uint256"
				}
			],
			"name": "trade",
			"outputs": [],
			"stateMutability": "nonpayable",
			"type": "function"
		}
	]
}