{
	"data": {
		"bytecode": {
			"linkReferences": {
				"contracts/Library.sol": {
					"Library": [
						{
							"length": 20,
							"start": 113
						},
						{
							"length": 20,
							"start": 254
						}
					]
				}
			},
			"object": "608060405234801561001057600080fd5b5061020c806100206000396000f3fe608060405234801561001057600080fd5b50600436106100365760003560e01c8063741351541461003b578063bfa814b514610045575b600080fd5b61004361004f565b005b61004d610149565b005b73__$8f1551ddb6659c4f61d022a243d43a4098$__630c8bc781600080808152602001908152602001600020600a6040518363ffffffff1660e01b815260040161009a929190610191565b60006040518083038186803b1580156100b257600080fd5b505af41580156100c6573d6000803e3d6000fd5b5050505060008080815260200190815260200160002073__$8f1551ddb6659c4f61d022a243d43a4098$__630c8bc7819091600a6040518363ffffffff1660e01b8152600401610117929190610168565b60006040518083038186803b15801561012f57600080fd5b505af4158015610143573d6000803e3d6000fd5b50505050565b565b610154816101c4565b82525050565b8082525050565b8082525050565b600060408201905061017d600083018561015a565b61018a602083018461014b565b9392505050565b60006040820190506101a66000830185610161565b6101b3602083018461014b565b9392505050565b6000819050919050565b60006101cf826101ba565b905091905056fea26469706673582212201fac4e6afb4f78a1a353e0e06eda5709db840030c668421b523bbb2dfda8037464736f6c63430008070033",
			"opcodes": "PUSH1 0x80 PUSH1 0x40 MSTORE CALLVALUE DUP1 ISZERO PUSH2 0x10 JUMPI PUSH1 0x0 DUP1 REVERT JUMPDEST POP PUSH2 0x20C DUP1 PUSH2 0x20 PUSH1 0x0 CODECOPY PUSH1 0x0 RETURN INVALID PUSH1 0x80 PUSH1 0x40 MSTORE CALLVALUE DUP1 ISZERO PUSH2 0x10 JUMPI PUSH1 0x0 DUP1 REVERT JUMPDEST POP PUSH1 0x4 CALLDATASIZE LT PUSH2 0x36 JUMPI PUSH1 0x0 CALLDATALOAD PUSH1 0xE0 SHR DUP1 PUSH4 0x74135154 EQ PUSH2 0x3B JUMPI DUP1 PUSH4 0xBFA814B5 EQ PUSH2 0x45 JUMPI JUMPDEST PUSH1 0x0 DUP1 REVERT JUMPDEST PUSH2 0x43 PUSH2 0x4F JUMP JUMPDEST STOP JUMPDEST PUSH2 0x4D PUSH2 0x149 JUMP JUMPDEST STOP JUMPDEST PUSH20 0x0 PUSH4 0xC8BC781 PUSH1 0x0 DUP1 DUP1 DUP2 MSTORE PUSH1 0x20 ADD SWAP1 DUP2 MSTORE PUSH1 0x20 ADD PUSH1 0x0 KECCAK256 PUSH1 0xA PUSH1 0x40 MLOAD DUP4 PUSH4 0xFFFFFFFF AND PUSH1 0xE0 SHL DUP2 MSTORE PUSH1 0x4 ADD PUSH2 0x9A SWAP3 SWAP2 SWAP1 PUSH2 0x191 JUMP JUMPDEST PUSH1 0x0 PUSH1 0x40 MLOAD DUP1 DUP4 SUB DUP2 DUP7 DUP1 EXTCODESIZE ISZERO DUP1 ISZERO PUSH2 0xB2 JUMPI PUSH1 0x0 DUP1 REVERT JUMPDEST POP GAS DELEGATECALL ISZERO DUP1 ISZERO PUSH2 0xC6 JUMPI RETURNDATASIZE PUSH1 0x0 DUP1 RETURNDATACOPY RETURNDATASIZE PUSH1 0x0 REVERT JUMPDEST POP POP POP POP PUSH1 0x0 DUP1 DUP1 DUP2 MSTORE PUSH1 0x20 ADD SWAP1 DUP2 MSTORE PUSH1 0x20 ADD PUSH1 0x0 KECCAK256 PUSH20 0x0 PUSH4 0xC8BC781 SWAP1 SWAP2 PUSH1 0xA PUSH1 0x40 MLOAD DUP4 PUSH4 0xFFFFFFFF AND PUSH1 0xE0 SHL DUP2 MSTORE PUSH1 0x4 ADD PUSH2 0x117 SWAP3 SWAP2 SWAP1 PUSH2 0x168 JUMP JUMPDEST PUSH1 0x0 PUSH1 0x40 MLOAD DUP1 DUP4 SUB DUP2 DUP7 DUP1 EXTCODESIZE ISZERO DUP1 ISZERO PUSH2 0x12F JUMPI PUSH1 0x0 DUP1 REVERT JUMPDEST POP GAS DELEGATECALL ISZERO DUP1 ISZERO PUSH2 0x143 JUMPI RETURNDATASIZE PUSH1 0x0 DUP1 RETURNDATACOPY RETURNDATASIZE PUSH1 0x0 REVERT JUMPDEST POP POP POP POP JUMP JUMPDEST JUMP JUMPDEST PUSH2 0x154 DUP2 PUSH2 0x1C4 JUMP JUMPDEST DUP3 MSTORE POP POP JUMP JUMPDEST DUP1 DUP3 MSTORE POP POP JUMP JUMPDEST DUP1 DUP3 MSTORE POP POP JUMP JUMPDEST PUSH1 0x0 PUSH1 0x40 DUP3 ADD SWAP1 POP PUSH2 0x17D PUSH1 0x0 DUP4 ADD DUP6 PUSH2 0x15A JUMP JUMPDEST PUSH2 0x18A PUSH1 0x20 DUP4 ADD DUP5 PUSH2 0x14B JUMP JUMPDEST SWAP4 SWAP3 POP POP POP JUMP JUMPDEST PUSH1 0x0 PUSH1 0x40 DUP3 ADD SWAP1 POP PUSH2 0x1A6 PUSH1 0x0 DUP4 ADD DUP6 PUSH2 0x161 JUMP JUMPDEST PUSH2 0x1B3 PUSH1 0x20 DUP4 ADD DUP5 PUSH2 0x14B JUMP JUMPDEST SWAP4 SWAP3 POP POP POP JUMP JUMPDEST PUSH1 0x0 DUP2 SWAP1 POP SWAP2 SWAP1 POP JUMP JUMPDEST PUSH1 0x0 PUSH2 0x1CF DUP3 PUSH2 0x1BA JUMP JUMPDEST SWAP1 POP SWAP2 SWAP1 POP JUMP INVALID LOG2 PUSH5 0x6970667358 0x22 SLT KECCAK256 0x1F 0xAC 0x4E PUSH11 0xFB4F78A1A353E0E06EDA57 MULMOD 0xDB DUP5 STOP ADDRESS 0xC6 PUSH9 0x421B523BBB2DFDA803 PUSH21 0x64736F6C6343000807003300000000000000000000 "
		},
		"gasEstimates": {
			"creation": {
				"codeDepositCost": "104800",
				"executionCost": "153",
				"totalCost": "104953"
			},
			"external": {
				"func()": "144",
				"func1()": "infinite"
			}
		},
		"methodIdentifiers": {
			"func()": "bfa814b5",
			"func1()": "74135154"
		}
	},
	"abi": [
		{
			"inputs": [],
			"name": "func",
			"outputs": [],
			"stateMutability": "pure",
			"type": "function"
		},
		{
			"inputs": [],
			"name": "func1",
			"outputs": [],
			"stateMutability": "nonpayable",
			"type": "function"
		}
	]
}