{
	"data": {
		"bytecode": {
			"linkReferences": {},
			"object": "608060405234801561001057600080fd5b5061011b806100206000396000f3fe6080604052348015600f57600080fd5b506004361060285760003560e01c80637413515414602d575b600080fd5b60336035565b005b6040517f08c379a0000000000000000000000000000000000000000000000000000000008152600401606590608d565b60405180910390fd5b6000607960098360ab565b915060828260bc565b602082019050919050565b6000602082019050818103600083015260a481606e565b9050919050565b600082825260208201905092915050565b7f4e6577206572726f72000000000000000000000000000000000000000000000060008201525056fea2646970667358221220a7c6dc6164a814279eb40c34a8fdf55a07f6f88ad9b7dccd025b39fa74b1677e64736f6c63430008070033",
			"opcodes": "PUSH1 0x80 PUSH1 0x40 MSTORE CALLVALUE DUP1 ISZERO PUSH2 0x10 JUMPI PUSH1 0x0 DUP1 REVERT JUMPDEST POP PUSH2 0x11B DUP1 PUSH2 0x20 PUSH1 0x0 CODECOPY PUSH1 0x0 RETURN INVALID PUSH1 0x80 PUSH1 0x40 MSTORE CALLVALUE DUP1 ISZERO PUSH1 0xF JUMPI PUSH1 0x0 DUP1 REVERT JUMPDEST POP PUSH1 0x4 CALLDATASIZE LT PUSH1 0x28 JUMPI PUSH1 0x0 CALLDATALOAD PUSH1 0xE0 SHR DUP1 PUSH4 0x74135154 EQ PUSH1 0x2D JUMPI JUMPDEST PUSH1 0x0 DUP1 REVERT JUMPDEST PUSH1 0x33 PUSH1 0x35 JUMP JUMPDEST STOP JUMPDEST PUSH1 0x40 MLOAD PUSH32 0x8C379A000000000000000000000000000000000000000000000000000000000 DUP2 MSTORE PUSH1 0x4 ADD PUSH1 0x65 SWAP1 PUSH1 0x8D JUMP JUMPDEST PUSH1 0x40 MLOAD DUP1 SWAP2 SUB SWAP1 REVERT JUMPDEST PUSH1 0x0 PUSH1 0x79 PUSH1 0x9 DUP4 PUSH1 0xAB JUMP JUMPDEST SWAP2 POP PUSH1 0x82 DUP3 PUSH1 0xBC JUMP JUMPDEST PUSH1 0x20 DUP3 ADD SWAP1 POP SWAP2 SWAP1 POP JUMP JUMPDEST PUSH1 0x0 PUSH1 0x20 DUP3 ADD SWAP1 POP DUP2 DUP2 SUB PUSH1 0x0 DUP4 ADD MSTORE PUSH1 0xA4 DUP2 PUSH1 0x6E JUMP JUMPDEST SWAP1 POP SWAP2 SWAP1 POP JUMP JUMPDEST PUSH1 0x0 DUP3 DUP3 MSTORE PUSH1 0x20 DUP3 ADD SWAP1 POP SWAP3 SWAP2 POP POP JUMP JUMPDEST PUSH32 0x4E6577206572726F720000000000000000000000000000000000000000000000 PUSH1 0x0 DUP3 ADD MSTORE POP JUMP INVALID LOG2 PUSH5 0x6970667358 0x22 SLT KECCAK256 0xA7 0xC6 0xDC PUSH2 0x64A8 EQ 0x27 SWAP15 0xB4 0xC CALLVALUE 0xA8 REVERT CREATE2 GAS SMOD 0xF6 0xF8 DUP11 0xD9 0xB7 0xDC 0xCD MUL JUMPDEST CODECOPY STATICCALL PUSH21 0xB1677E64736F6C6343000807003300000000000000 "
		},
		"gasEstimates": {
			"creation": {
				"codeDepositCost": "56600",
				"executionCost": "105",
				"totalCost": "56705"
			},
			"external": {
				"func1()": "412"
			}
		},
		"methodIdentifiers": {
			"func1()": "74135154"
		}
	},
	"abi": [
		{
			"inputs": [],
			"name": "func1",
			"outputs": [],
			"stateMutability": "pure",
			"type": "function"
		}
	]
}