{
	"data": {
		"bytecode": {
			"linkReferences": {},
			"object": "608060405234801561001057600080fd5b506103cd806100206000396000f3fe608060405234801561001057600080fd5b50600436106100365760003560e01c806301c6adc31461003b5780638a4068dd14610057575b600080fd5b610055600480360381019061005091906101f9565b610061565b005b61005f61010f565b005b600073dd870fa1b7c4700f2bd7f44238821c26f739214890508073ffffffffffffffffffffffffffffffffffffffff166323b872dd3385856040518463ffffffff1660e01b81526004016100b793929190610293565b602060405180830381600087803b1580156100d157600080fd5b505af11580156100e5573d6000803e3d6000fd5b505050506040513d601f19601f820116820180604052508101906101099190610239565b50505050565b600073dd870fa1b7c4700f2bd7f44238821c26f739214890508073ffffffffffffffffffffffffffffffffffffffff1663a9059cbb3360326040518363ffffffff1660e01b81526004016101649291906102ca565b602060405180830381600087803b15801561017e57600080fd5b505af1158015610192573d6000803e3d6000fd5b505050506040513d601f19601f820116820180604052508101906101b69190610239565b5050565b6000813590506101c981610352565b92915050565b6000815190506101de81610369565b92915050565b6000813590506101f381610380565b92915050565b600080604083850312156102105761020f61034d565b5b600061021e858286016101ba565b925050602061022f858286016101e4565b9150509250929050565b60006020828403121561024f5761024e61034d565b5b600061025d848285016101cf565b91505092915050565b61026f816102f3565b82525050565b61027e8161033b565b82525050565b61028d81610331565b82525050565b60006060820190506102a86000830186610266565b6102b56020830185610266565b6102c26040830184610284565b949350505050565b60006040820190506102df6000830185610266565b6102ec6020830184610275565b9392505050565b60006102fe82610311565b9050919050565b60008115159050919050565b600073ffffffffffffffffffffffffffffffffffffffff82169050919050565b6000819050919050565b600061034682610331565b9050919050565b600080fd5b61035b816102f3565b811461036657600080fd5b50565b61037281610305565b811461037d57600080fd5b50565b61038981610331565b811461039457600080fd5b5056fea26469706673582212206dbe2a507a3ada606d32e947321d96cf6c62366e9dc0faea6526d2ca7251ef8f64736f6c63430008070033",
			"opcodes": "PUSH1 0x80 PUSH1 0x40 MSTORE CALLVALUE DUP1 ISZERO PUSH2 0x10 JUMPI PUSH1 0x0 DUP1 REVERT JUMPDEST POP PUSH2 0x3CD DUP1 PUSH2 0x20 PUSH1 0x0 CODECOPY PUSH1 0x0 RETURN INVALID PUSH1 0x80 PUSH1 0x40 MSTORE CALLVALUE DUP1 ISZERO PUSH2 0x10 JUMPI PUSH1 0x0 DUP1 REVERT JUMPDEST POP PUSH1 0x4 CALLDATASIZE LT PUSH2 0x36 JUMPI PUSH1 0x0 CALLDATALOAD PUSH1 0xE0 SHR DUP1 PUSH4 0x1C6ADC3 EQ PUSH2 0x3B JUMPI DUP1 PUSH4 0x8A4068DD EQ PUSH2 0x57 JUMPI JUMPDEST PUSH1 0x0 DUP1 REVERT JUMPDEST PUSH2 0x55 PUSH1 0x4 DUP1 CALLDATASIZE SUB DUP2 ADD SWAP1 PUSH2 0x50 SWAP2 SWAP1 PUSH2 0x1F9 JUMP JUMPDEST PUSH2 0x61 JUMP JUMPDEST STOP JUMPDEST PUSH2 0x5F PUSH2 0x10F JUMP JUMPDEST STOP JUMPDEST PUSH1 0x0 PUSH20 0xDD870FA1B7C4700F2BD7F44238821C26F7392148 SWAP1 POP DUP1 PUSH20 0xFFFFFFFFFFFFFFFFFFFFFFFFFFFFFFFFFFFFFFFF AND PUSH4 0x23B872DD CALLER DUP6 DUP6 PUSH1 0x40 MLOAD DUP5 PUSH4 0xFFFFFFFF AND PUSH1 0xE0 SHL DUP2 MSTORE PUSH1 0x4 ADD PUSH2 0xB7 SWAP4 SWAP3 SWAP2 SWAP1 PUSH2 0x293 JUMP JUMPDEST PUSH1 0x20 PUSH1 0x40 MLOAD DUP1 DUP4 SUB DUP2 PUSH1 0x0 DUP8 DUP1 EXTCODESIZE ISZERO DUP1 ISZERO PUSH2 0xD1 JUMPI PUSH1 0x0 DUP1 REVERT JUMPDEST POP GAS CALL ISZERO DUP1 ISZERO PUSH2 0xE5 JUMPI RETURNDATASIZE PUSH1 0x0 DUP1 RETURNDATACOPY RETURNDATASIZE PUSH1 0x0 REVERT JUMPDEST POP POP POP POP PUSH1 0x40 MLOAD RETURNDATASIZE PUSH1 0x1F NOT PUSH1 0x1F DUP3 ADD AND DUP3 ADD DUP1 PUSH1 0x40 MSTORE POP DUP2 ADD SWAP1 PUSH2 0x109 SWAP2 SWAP1 PUSH2 0x239 JUMP JUMPDEST POP POP POP POP JUMP JUMPDEST PUSH1 0x0 PUSH20 0xDD870FA1B7C4700F2BD7F44238821C26F7392148 SWAP1 POP DUP1 PUSH20 0xFFFFFFFFFFFFFFFFFFFFFFFFFFFFFFFFFFFFFFFF AND PUSH4 0xA9059CBB CALLER PUSH1 0x32 PUSH1 0x40 MLOAD DUP4 PUSH4 0xFFFFFFFF AND PUSH1 0xE0 SHL DUP2 MSTORE PUSH1 0x4 ADD PUSH2 0x164 SWAP3 SWAP2 SWAP1 PUSH2 0x2CA JUMP JUMPDEST PUSH1 0x20 PUSH1 0x40 MLOAD DUP1 DUP4 SUB DUP2 PUSH1 0x0 DUP8 DUP1 EXTCODESIZE ISZERO DUP1 ISZERO PUSH2 0x17E JUMPI PUSH1 0x0 DUP1 REVERT JUMPDEST POP GAS CALL ISZERO DUP1 ISZERO PUSH2 0x192 JUMPI RETURNDATASIZE PUSH1 0x0 DUP1 RETURNDATACOPY RETURNDATASIZE PUSH1 0x0 REVERT JUMPDEST POP POP POP POP PUSH1 0x40 MLOAD RETURNDATASIZE PUSH1 0x1F NOT PUSH1 0x1F DUP3 ADD AND DUP3 ADD DUP1 PUSH1 0x40 MSTORE POP DUP2 ADD SWAP1 PUSH2 0x1B6 SWAP2 SWAP1 PUSH2 0x239 JUMP JUMPDEST POP POP JUMP JUMPDEST PUSH1 0x0 DUP2 CALLDATALOAD SWAP1 POP PUSH2 0x1C9 DUP2 PUSH2 0x352 JUMP JUMPDEST SWAP3 SWAP2 POP POP JUMP JUMPDEST PUSH1 0x0 DUP2 MLOAD SWAP1 POP PUSH2 0x1DE DUP2 PUSH2 0x369 JUMP JUMPDEST SWAP3 SWAP2 POP POP JUMP JUMPDEST PUSH1 0x0 DUP2 CALLDATALOAD SWAP1 POP PUSH2 0x1F3 DUP2 PUSH2 0x380 JUMP JUMPDEST SWAP3 SWAP2 POP POP JUMP JUMPDEST PUSH1 0x0 DUP1 PUSH1 0x40 DUP4 DUP6 SUB SLT ISZERO PUSH2 0x210 JUMPI PUSH2 0x20F PUSH2 0x34D JUMP JUMPDEST JUMPDEST PUSH1 0x0 PUSH2 0x21E DUP6 DUP3 DUP7 ADD PUSH2 0x1BA JUMP JUMPDEST SWAP3 POP POP PUSH1 0x20 PUSH2 0x22F DUP6 DUP3 DUP7 ADD PUSH2 0x1E4 JUMP JUMPDEST SWAP2 POP POP SWAP3 POP SWAP3 SWAP1 POP JUMP JUMPDEST PUSH1 0x0 PUSH1 0x20 DUP3 DUP5 SUB SLT ISZERO PUSH2 0x24F JUMPI PUSH2 0x24E PUSH2 0x34D JUMP JUMPDEST JUMPDEST PUSH1 0x0 PUSH2 0x25D DUP5 DUP3 DUP6 ADD PUSH2 0x1CF JUMP JUMPDEST SWAP2 POP POP SWAP3 SWAP2 POP POP JUMP JUMPDEST PUSH2 0x26F DUP2 PUSH2 0x2F3 JUMP JUMPDEST DUP3 MSTORE POP POP JUMP JUMPDEST PUSH2 0x27E DUP2 PUSH2 0x33B JUMP JUMPDEST DUP3 MSTORE POP POP JUMP JUMPDEST PUSH2 0x28D DUP2 PUSH2 0x331 JUMP JUMPDEST DUP3 MSTORE POP POP JUMP JUMPDEST PUSH1 0x0 PUSH1 0x60 DUP3 ADD SWAP1 POP PUSH2 0x2A8 PUSH1 0x0 DUP4 ADD DUP7 PUSH2 0x266 JUMP JUMPDEST PUSH2 0x2B5 PUSH1 0x20 DUP4 ADD DUP6 PUSH2 0x266 JUMP JUMPDEST PUSH2 0x2C2 PUSH1 0x40 DUP4 ADD DUP5 PUSH2 0x284 JUMP JUMPDEST SWAP5 SWAP4 POP POP POP POP JUMP JUMPDEST PUSH1 0x0 PUSH1 0x40 DUP3 ADD SWAP1 POP PUSH2 0x2DF PUSH1 0x0 DUP4 ADD DUP6 PUSH2 0x266 JUMP JUMPDEST PUSH2 0x2EC PUSH1 0x20 DUP4 ADD DUP5 PUSH2 0x275 JUMP JUMPDEST SWAP4 SWAP3 POP POP POP JUMP JUMPDEST PUSH1 0x0 PUSH2 0x2FE DUP3 PUSH2 0x311 JUMP JUMPDEST SWAP1 POP SWAP2 SWAP1 POP JUMP JUMPDEST PUSH1 0x0 DUP2 ISZERO ISZERO SWAP1 POP SWAP2 SWAP1 POP JUMP JUMPDEST PUSH1 0x0 PUSH20 0xFFFFFFFFFFFFFFFFFFFFFFFFFFFFFFFFFFFFFFFF DUP3 AND SWAP1 POP SWAP2 SWAP1 POP JUMP JUMPDEST PUSH1 0x0 DUP2 SWAP1 POP SWAP2 SWAP1 POP JUMP JUMPDEST PUSH1 0x0 PUSH2 0x346 DUP3 PUSH2 0x331 JUMP JUMPDEST SWAP1 POP SWAP2 SWAP1 POP JUMP JUMPDEST PUSH1 0x0 DUP1 REVERT JUMPDEST PUSH2 0x35B DUP2 PUSH2 0x2F3 JUMP JUMPDEST DUP2 EQ PUSH2 0x366 JUMPI PUSH1 0x0 DUP1 REVERT JUMPDEST POP JUMP JUMPDEST PUSH2 0x372 DUP2 PUSH2 0x305 JUMP JUMPDEST DUP2 EQ PUSH2 0x37D JUMPI PUSH1 0x0 DUP1 REVERT JUMPDEST POP JUMP JUMPDEST PUSH2 0x389 DUP2 PUSH2 0x331 JUMP JUMPDEST DUP2 EQ PUSH2 0x394 JUMPI PUSH1 0x0 DUP1 REVERT JUMPDEST POP JUMP INVALID LOG2 PUSH5 0x6970667358 0x22 SLT KECCAK256 PUSH14 0xBE2A507A3ADA606D32E947321D96 0xCF PUSH13 0x62366E9DC0FAEA6526D2CA7251 0xEF DUP16 PUSH5 0x736F6C6343 STOP ADDMOD SMOD STOP CALLER "
		},
		"gasEstimates": {
			"creation": {
				"codeDepositCost": "194600",
				"executionCost": "238",
				"totalCost": "194838"
			},
			"external": {
				"transfer()": "infinite",
				"transferFrom(address,uint256)": "infinite"
			}
		},
		"methodIdentifiers": {
			"transfer()": "8a4068dd",
			"transferFrom(address,uint256)": "01c6adc3"
		}
	},
	"abi": [
		{
			"inputs": [],
			"name": "transfer",
			"outputs": [],
			"stateMutability": "nonpayable",
			"type": "function"
		},
		{
			"inputs": [
				{
					"internalType": "address",
					"name": "recipient",
					"type": "address"
				},
				{
					"internalType": "uint256",
					"name": "amount",
					"type": "uint256"
				}
			],
			"name": "transferFrom",
			"outputs": [],
			"stateMutability": "nonpayable",
			"type": "function"
		}
	]
}